:020000040800F2
:10000000C80B002489030008D37500089B6D000805
:1000100049750008791F00084989000800000000A0
:1000200000000000000000000000000071780008DF
:10003000A926000800000000D5750008E97A00082C
:10004000A7030008A7030008A7030008A7030008E8
:10005000A7030008A7030008A7030008A7030008D8
:10006000A7030008A7030008A7030008911F0008C2
:100070009D1F0008A7030008A7030008A7030008A6
:10008000A7030008A7030008A7030008CD2600085F
:10009000E5260008D9260008F1260008A703000875
:1000A000A7030008A7030008A7030008A703000888
:1000B000A7030008A7030008A7030008A703000878
:1000C000A7030008A7030008A7030008A703000868
:1000D000A7030008ED880008A7030008A70300088D
:1000E000A7030008A703000800000000A7030008FA
:1000F000A7030008A7030008A7030008A703000838
:10010000A7030008A7030008A7030008A703000827
:10011000A7030008A7030008A7030008A703000817
:10012000A7030008A7030008A7030008A703000807
:10013000A7030008A7030008A7030008A7030008F7
:1001400000000000000000000000000000000000AF
:10015000A7030008A7030008A7030008A7030008D7
:10016000A7030008A7030008A7030008A7030008C7
:10017000A7030008A7030008A70300080000000069
:10018000A7030008A7030008A7030008A7030008A7
:10019000A7030008A7030008A7030008A703000897
:1001A000A7030008A7030008A70300080000000039
:1001B000A7030008A7030008A7030008A703000877
:1001C000A7030008A70300080000000000000000CB
:1001D0000000000000000000A7030008000000006D
:1001E000000000000000000000000000000000000F
:1001F0000000000000000000A7030008A70300089B
:10020000A7030008A703000800000000A7030008D8
:10021000A7030008A7030008A7030008A703000816
:10022000A703000800000000A7030008000000006A
:10023000A7030008A703000800000000A7030008A8
:10024000A7030008A7030008A7030008A7030008E6
:10025000A7030008A7030008A7030008A7030008D6
:10026000A7030008A7030008A7030008A7030008C6
:10027000A7030008A7030008A70300080000000068
:10028000A7030008A7030008A7030008A7030008A6
:1002900000000000A7030008A703000800000000FA
:1002A00000000000A7030008A7030008A703000838
:1002B000A7030008A7030008A7030008A703000876
:1002C000A7030008A7030008A703000800F002F82E
:1002D00000F04AF80AA090E8000C82448344AAF196
:1002E0000107DA4501D100F03FF8AFF2090EBAE894
:1002F0000F0013F0010F18BFFB1A43F0010318475A
:1003000098960000B8960000103A24BF78C878C1CB
:10031000FAD8520724BF30C830C144BF04680C600B
:10032000704700000023002400250026103A28BF53
:1003300078C1FBD8520728BF30C148BF0B60704757
:100340001FB509F05BF900F061FD040000200021F9
:1003500009F036F9401C60600020002109F01AF90C
:10036000E0601FBD10B510BD00F092FF1146FFF711
:10037000E7FF09F0F7F801F0E3F903B4FFF7F2FF44
:1003800003BC01F02FFA00000A4880470A48804762
:100390000A480047FEE7FEE7FEE7FEE7FEE7FEE766
:1003A000FEE7FEE7FEE7FEE705480649064A074B7B
:1003B00070470000B1260008917B0008CD020008BC
:1003C000C8050024C80B0024C8070024C80700245F
:1003D00053EA020C00F069802DE9F04B4FF0000663
:1003E000002B1FBFB3FA83F503FA05F424FA05F6D0
:1003F0005E4012BF1643B2FA82F502FA05F4C5F167
:1004000020051EBF22FA05FC44EA0C04203556EAFA
:10041000044C4FEA144418BF641C4FF000084FF01E
:100420000009904271EB030C39D3002919BFB1FACE
:1004300081F701FA07F6B0FA80F700FA07F6C7F17C
:1004400020071EBF20FA07FC46EA0C062037B6FB41
:10045000F4FCA7EB0507103F07F01F0BCBF12006BC
:100460000CFA0BFB2CFA06F644BFB3460026202FED
:10047000A4BF5E464FF0000B5BEA060C08BF4FF0CE
:10048000010B19EB0B09ABFB027C48EB0608C01B08
:1004900006FB02CC0BFB03CC71EB0C01C1E70B4656
:1004A000024641464846BDE8F08B13B54FF00000C8
:1004B0004FF00001AFF30080BDE81C407047000022
:1004C0000FB400B58DB010A9099000910B904FF0BA
:1004D000FF300A9000200C900648784406900648A9
:1004E00078446A4607900F9909A800F05FFC0DB0A8
:1004F0005DF814FBEF080000070900002DE9FF5F1D
:100500001D464FF0FF3B91464FF000085F46D5E98E
:100510000146A96901987F1C8847296A8246884755
:100520000028F6D1BAF1FF3F0CD0002E24F4C064AD
:1005300019DD600614D5BAF12B0F09D0BAF12D0FD1
:100540000ED103E0584604B0BDE8F09F44F4806447
:10055000A96901987F1C8847761E8246002E02DD1D
:10056000BAF1300F03D0B9F1000F26D032E0A969FB
:10057000761E01987F1C44F400748847002E824642
:1005800005DDBAF1780F06D0BAF1580F03D0B9F1F2
:10059000000F10D01EE0B9F1000F02D0B9F1100F1A
:1005A00018D1A969761E01987F1C24F4007488472D
:1005B0008246102002E0082000E00A20814609E07F
:1005C000A96908FB0908761E01987F1C44F4007491
:1005D00088478246002E05DD4946504600F056F910
:1005E0000028EDDAE96901988847A00502D46FF088
:1005F0000100A8E7E00725D1600613D5600502D504
:10060000C8F1000000E0404629680A1D2A60096818
:10061000220501D5087015E0220701D5088011E0F8
:1006200008600FE02868011D29600068210502D5D7
:1006300080F8008006E0210702D5A0F8008001E0E4
:10064000C0F8008038467EE72DE9FF5F4FF00008D4
:100650009946144646469169D2E901A7DDF838B0BB
:1006600001988847054659EA0B0005D009E0A169C1
:100670000198761C88470546216A28468847002845
:10068000F5D1681C03D05FEACA7005D015E04FF0C1
:10069000FF3004B0BDE8F09F2068011D2160D0F854
:1006A00000800AE05FEACA7001D108F8015BA16925
:1006B000761C01987F1E88470546002F1ADD681CAE
:1006C00018D0B9F1000F0DD0E81705EBD06042113A
:1006D00020F01F0059F822102A1A012090400142F0
:1006E000E0D107E0BBF1000FDCD12846216A884742
:1006F0000028D7D0E16901988847BBF1000F07D1E6
:10070000002E05DD5FEACA7002D1002188F80010D2
:10071000A068B84203DDBBF1000F03D017B16FF042
:100720000100B6E73046B4E740EA010370B59B0725
:100730002ED14FF00136042A2AD308C810C99D1BB8
:100740009D43121F15EAC61517D0D8B2E1B2401A60
:1007500050EA056110D198B2A1B2401A50EA0541A1
:100760000AD123F07F4024F07F41401A50EA05214E
:1007700002D1180EA0EB146070BDA342DBD018BAF2
:1007800021BA884201D9012070BD4FF0FF3070BD01
:100790000AB9002070BD10F8013B11F8014B63B19C
:1007A000A3420AD1521E08D010F8013B11F8014BA8
:1007B0001BB1A34201D1521EEDD1181B70BD10B563
:1007C000203AC0F00B80B1E81850203AA0E8185049
:1007D000B1E81850A0E81850BFF4F5AF5FEA027C0A
:1007E00024BFB1E81850A0E8185044BF18C918C079
:1007F000BDE810405FEA827C24BF51F8043B40F81A
:10080000043B08BF7047D20728BF31F8023B48BFFE
:1008100011F8012B28BF20F8023B48BF00F8012B3C
:1008200070474FF0000200B51346944696462039B3
:1008300022BFA0E80C50A0E80C50B1F12001BFF499
:10084000F7AF090728BFA0E80C5048BF0CC05DF8FF
:1008500004EB890028BF40F8042B08BF704748BF4D
:1008600020F8022B11F0804F18BF00F8012B7047C1
:1008700070477047704710B500F0CCFA006810BDA3
:1008800010B5044600F0C6FA046010BD3A2800D244
:10089000303820F02002412A01D3A2F137008842EB
:1008A00001D34FF0FF3070472DE9FF4F06468BB064
:1008B0000878FF2806D0491C2D2805D000244FF0C9
:1008C000000908E000200CE00124F8E709EB8903A7
:1008D000491C00EB43090878FF28F7D114B1C9F18E
:1008E00000008146107800252C46AA4629462D286E
:1008F00001D02B2804D1521C2D2813D00020824671
:100900008B461078FF280FD04FF0000C0A21521CA4
:10091000A5FB017804FB018105FB0C11C5194BEB0C
:100920000104EEE70120EAE7002108464FF000004D
:10093000BAF1000F02D000EB80004008C0F38157ED
:10094000012F01DD4FF0FF370E9955EA040009EB46
:1009500001080BD04FF0020918F5FA7F16DA4FEABA
:10096000CA70002F706008DD012007E04FEACA70EE
:10097000C6E900B00FB0BDE8F08F0020306000F095
:1009800049FAC0F800901821084616E0B8F5FA7F39
:1009900018DD002F02DAF748784401E0F648784481
:1009A000D0E90010C6E9001040EACA70706000F09B
:1009B00031FAC0F80090142108460FB0BDE8F04F9E
:1009C00008F021BE002108464FF00000B8F10001F8
:1009D000099002DAC7F1000200E03A4601DAC8F1F4
:1009E000000106A800F0DEFB06AB93E8070003ABAE
:1009F00083E8070044F23E005BEA04010090584699
:100A000004D144F21E012C465D460091210C0904DC
:100A1000014306D10099240444EA15442D041039F9
:100A2000009104F07F41014306D10099240244EA79
:100A300015642D020839009104F07041014306D17C
:100A40000099240144EA15742D01091F009104F056
:100A50004041014306D10099A40044EA9574AD00D9
:100A6000891E009104F00041084304D100986D19DB
:100A70006441401E00904FF001033A466846B8F1C9
:100A8000000FCDE9014503A902DD01F03EF901E0C7
:100A900001F011F9BAF1000F04460D4601D084F0BF
:100AA0000044002108464FF00000099940F2FF770A
:100AB000484010F00C0F07D124F00040284303D029
:100AC000C4F30A50B84212D100F0A4F9C0F8009063
:100AD000C4F30A50B8420AD1A8487844D0E90010BB
:100AE000C6E9001004F000410843706042E7C6E91F
:100AF00000543FE72DE9FF4F1F464FF0000A4FF02B
:100B0000FF38454691B0D7E90146CDF83CA000F04A
:100B10007DF9C0680168405C1090B96912986D1C3D
:100B20008847396A814688470028F6D1B9F1FF3FE6
:100B30000AD0002E24F4D06411DDB9F12B0F08D0B7
:100B4000B9F12D0F0BD102E0404615B013E744F484
:100B50008064B96912986D1C8847761E81466005CD
:100B600004A901D52D2000E02B20002E01F1010B5E
:100B70000DF130088DF810003FDDB9F1690F08D094
:100B8000B9F1490F05D0B9F16E0F02D0B9F14E0F8E
:100B90001CD13B4601A8009580E85002DDE9121205
:100BA0006FF0020008F096FDC11CCED10EE0B969CD
:100BB00012986D1C884781461398761E44F4007481
:100BC00005600F98401C002E0F9016DDB9F1300F14
:100BD000EDD0B9F1780F02D0B9F1580F0DD10F98BF
:100BE00001280AD13B46CDE90054DDE91212001F6D
:100BF000029608F06DFDC11CA7D1109989453ED120
:100C000044F0800406E01399681CAAF1010A44F438
:100C100000740860B9696D1C1298761E88473028E8
:100C20008146F0D02BE01099894505D1200603D4E8
:100C3000761E44F0800418E0484608F045FC08B3EE
:100C4000761E0DF123018B4544F4007408D2A9F1FE
:100C500030000BF8010B200607D5AAF1010003E0D4
:100C6000200602D40AF101008246A00502D513999C
:100C7000681C0860B96912986D1C88478146002E6F
:100C8000D1DC53E0002E51DDB9F1650F02D0B9F18E
:100C9000450F4BD1A00549D5B9696D1C1298761E38
:100CA00024F440748847002E81460CDD2B2804D0A4
:100CB000B9F12D0F07D144F48074B96912986D1CF5
:100CC0008847761E8146E00501D52D2100E02B21C5
:100CD00008F8011BCDF8008021E0761E0DF13901E6
:100CE000884544F400740CD2A9F1300010F0FF00E4
:100CF00088F8000002D10099884509D908F1010857
:100D000006E0E00501D51E4801E042F20F70824680
:100D1000B96912986D1C8847814613980560002EAA
:100D200004DD484608F0D0FB0028D6D1F9691298B6
:100D30008847FF2053468BF8000088F80000002009
:100D40000A900B9004AA0CA90AA8FFF7ADFDA00514
:100D500002D46FF00100F8E614F0240F12D0E0077F
:100D60001CD13868DDE90A12031D3B600068C0E948
:100D7000001213E02490000016900000DA8E0000AC
:100D8000F1D8FFFF0AA9684608F08CFAE00705D100
:100D90003868009A011D3960006802602846D4E670
:100DA000026811441378016018467047D160054904
:100DB000794451610449794411620021116111465D
:100DC00000F036B8EDFFFFFF63000000426842B15B
:100DD000016811F8013B23B1521EC0E90012184608
:100DE00070470121C160881E704742685AB1C368CC
:100DF000016843B983688B4205D0491E521CC0E983
:100E00000012002070474FF0FF30704700487047D5
:100E100084050024004870476405002410B504468A
:100E200000F05CFA0068005D00F0010010BD0000F9
:100E30002DE9F34F4FF0000A0C4656468DB00120C5
:100E40000C9001F10C000B9062690B980121904706
:100E5000051E2DD0252D2CD0216A8847C0B162698E
:100E60000B9801219047216A88470028F7D16269D1
:100E7000411E0B98904700E0761CA1690D988847A9
:100E8000216A88470028F7D1E1690D988847DBE798
:100E9000A1690D988847A842074601D1761CD3E77F
:100EA000E1690D9888477F1C02D1BAF1000F6FD01D
:100EB0006BE162690B9800273D46394690472A2826
:100EC00004D162690B98012190470125DFF8D08297
:100ED00062690B9801219047A0F130010A290AD2DA
:100EE0004745E5DC07EB870100EB4107303FDFD4E6
:100EF00045F01005ECE7E90601D46FF000476C28D7
:100F00000AD04C2814D0682815D06A280DD074282F
:100F10001CD07A281AD01DE062690B9801219047F5
:100F20006C2802D045F0040514E045F002050DE000
:100F300045F020050AE062690B9801219047682876
:100F400002D045F0080505E045F4006562690B989C
:100F500001219047C4E9015765283DD019DC582884
:100F60007AD00CDC452837D004DC252826D041284F
:100F70009ED131E046282FD0472899D12CE05B281C
:100F800077D0612828D063287CD0642823D15AE008
:100F9000F6E06F2848D008DC66281DD067281BD0F3
:100FA000692821D06E2816D127E0702845D07328F3
:100FB00068D0752847D078280DD14DE0A1690D98EB
:100FC0008847252805463FF469AFE1690D988847B1
:100FD0006D1C3FF46AAFD8E00D9923466A466FF066
:100FE000010008F073FBC5E045F0400023464FF0D8
:100FF00000026060A80736D43EE0E8077FF447AF00
:101000002068011D21600068290501D506701BE7D5
:10101000290701D5068017E7A90703D5F117C0E90D
:10102000006111E706600FE745F0400023464FF0EE
:1010300008026060A80716D41EE040F60E0125EAFB
:101040000100606016E045F0400023464FF00A02C0
:101050006060A80707D40FE045F040006060A80773
:1010600008D5234610220D996FF00100AFF30080E0
:1010700080E007E0102223460D996FF00100FFF792
:101080003DFA77E04FF0000963284F46C8464B46CB
:10109000CB4602D05B2806D038E0E80601D4012018
:1010A000A060012732E06269D4F80CB00B980121EE
:1010B00090475E2807D14FF0010949466269D4F88C
:1010C0000CB00B989047216939B900210A4603AB4F
:1010D00043F82120491C0829FADBD8B3216949B318
:1010E00008F1010862690B98012190475D28F4D14D
:1010F000B9F1000F09D0002003A951F82020D243F4
:1011000041F82020401C0828F7DB03AB20690028A9
:1011100020794FEA40701ED05B462246CDF8008011
:10112000CDE901970D9900286FF0010020DAAFF3A7
:1011300000801FE0C11703AA00EBD1614B1121F021
:101140001F0102EB8302411A136801208840034308
:101150001360C7E719E00D99224600286FF00100DF
:10116000009702DAAFF3008004E0FFF76DFA01E0C8
:10117000AFF3008000280ADA401C06D10C9820B199
:101180004FF0FF300FB0BDE8F08F5046FAE7E907A7
:1011900001D10AF1010A064400200C9054E6000037
:1011A000CCCCCC0C2DE9F047814616468AB03548A8
:1011B00078440DC88DE80D0032487844801C03AC9B
:1011C0000DC884E80D0041F69B300844372190FBA0
:1011D000F1F290FBF1F5A5F1800501FB12041B3C37
:1011E00002D56442012000E00020DFF898A080468C
:1011F0000027FA44AAF1BE0A0EE0E0070AD0324600
:10120000684607EB470101230AEB810100F068FD06
:101210008DE8070064107F1C002CEED1194F7F442D
:10122000AE3F19E0E80715D007EB04100DF1180ADE
:1012300090E80E008AE80E00C068F04201D19819CB
:1012400008903246012306A903A800F049FD03AB2C
:1012500083E807006D10641C002DE3D14FF00103FB
:1012600032466946B8F1000F03A802D000F00EFD27
:1012700001E000F035FDC9E90001C9F808200AB015
:10128000BDE8F087CC870000004870476405002463
:101290007546FFF7F9FFAE4605006946534620F054
:1012A0000700854618B020B5FFF77EF8BDE820405E
:1012B0004FF000064FF000074FF000084FF0000B12
:1012C00021F00701AC46ACE8C009ACE8C009ACE8C5
:1012D000C009ACE8C0098D467047000010B5FFF7A3
:1012E00095FD001D10BD00BFD98200002DE9FF4F04
:1012F0001F464FF03C0987B04FF00042DDE9141063
:1013000001F10108DDF858A002EA405003900020E6
:1013100005908346054604460490B969461E089820
:101320008847AAF1010A0290BAF1000F3BDD02984A
:101330002E2815D01021FFF7A9FA00282EDB4FF038
:10134000010B0599014317D0B9F1000F0BDB4A4699
:10135000C11700F033FA05430C43A9F1040905E075
:10136000012004900BE008B145F001050120059033
:10137000049820B9361D02E0049800B1361FB969FF
:10138000089808F101088847BBF1000FAAF1010A8B
:101390000290C9D00999C1F80080C5E70298702869
:1013A00008D0502806D0F96908988847BBF1000F8B
:1013B00014D04FE0002002900120BBF1000F0490F8
:1013C00009D0B969089808F101088847AAF101090C
:1013D000B9F1000F07DCF969089888476FF0010040
:1013E0000BB0BDE8F08F2B2804D02D280CD14FF086
:1013F000FF300490B969089808F101088847A9F1FD
:101400000109B9F1000FE6DD411CE4D00A21FFF724
:101410003DFA0028DFDB029908F1010801EB8101A8
:1014200000EB41000290B969089888470A21FFF74C
:101430002DFA099AA9F10109B9F1000FC2F800804B
:1014400001DD0028E7DAF9690898884704990298CD
:1014500000FB016655EA040004D004F04041090095
:1014600002D006E0039898E0A40044EA9574AD0029
:10147000B61E04F00041080002D16D196441761EC9
:10148000159810F0240F03D04FF00B095C4803E0CF
:101490004FF028096FF07D008246564507DAAAEB27
:1014A00006018944B9F1410F01DD4FF041090120E6
:1014B0000021A9F1010200F081F9024628400B4603
:1014C0002140084301D0012100E00021501E02917B
:1014D00043F1FF3128402140084301D0012000E0C2
:1014E00000200299834651EA0B014FD000210846A3
:1014F0004FF00000039900F4400039B100EB800088
:101500004FF4400100EBD07001EA60008015012823
:1015100002DD4FF0FF3000E013D0401C36D00298BF
:1015200060B3BBF1000F0CD14A460120002100F04E
:1015300045F928402140084301D0012000E0002067
:10154000E0B101204A46002100F038F90346401975
:101550000A4661412D1A8C4111D3B9F1400F09DDC2
:10156000159810F0240F02D0AAF1340603E0AAF176
:10157000170600E0761C00254FF0004406E05B1ED5
:1015800042F1FF3220EA030521EA0204CAF1010018
:10159000B04206DA1B4903980843019000200090EE
:1015A0000EE0039AC4F3D321E80A0A43164940EA3D
:1015B00044500A433146CDE90002684607F028FF4F
:1015C000159810F0240F0BD01598C00715D1386866
:1015D000DDE90012031D3B600068C0E900120CE069
:1015E00002A8694607F05EFE1598C00705D1386865
:1015F000029A011D3960006802604046F0E6000072
:1016000002FCFFFF0000F07F0000F03F2DE9FF4FDC
:1016100092461D4685B04FF00041DDE9124BDDE9F1
:1016200014727F1E01EA4B50414940F0FF4940EAE5
:101630000108002122F020004928049102D04E2800
:1016400028D04CE03BA0012607C88DE80700A96917
:101650000698641C88477F1E014606D41DF80600C4
:1016600018B121F0200181420BD0E9690698884722
:10167000032E34D0082E32D06FF0010009B0BDE83F
:10168000F08F761C032E01D0082EE0D1601CCAF822
:101690000000DCE7A9690698641C88477F1E2AD4ED
:1016A00020F02000412826D1A9690698641C8847AB
:1016B0007F1E20D420F020004E281CD1A969069856
:1016C000641C88477F1E48F4002849F48009CAF842
:1016D000004001D4282806D0E969069888475FEAC7
:1016E000CB7012D022E0A9690698641C88477F1E3F
:1016F00001D4002803DAE96906988847BCE729285D
:10170000F1D1641CCAF80040E9E71BF0240F07D0B0
:1017100028680499031D2B600068C0E9001805E0E3
:101720002868021D2A600068C0F800902046A5E7DE
:101730000000F07F494E46494E49545900000000D0
:1017400010B50446AFF300802046BDE81040FEF718
:1017500014BE00004FF0013C50F8042B51F8043B3C
:101760009A4215D1A2EB0C03934313EACC130BD18D
:1017700050F8042B51F8043B9A4209D1A2EB0C0318
:10178000934313EACC13E7D04FF00000704700BF3B
:10179000D01A01BAB1FA81F101F0180122FA01F070
:1017A000CB40C1F12001DBB2C0B2C01A2CFA01F368
:1017B000D11A914311EAC311E6D17047B2F1200367
:1017C0000AD5C2F1200301FA02F120FA03F300FA6C
:1017D00002F041EA0301704700FA03F14FF0000004
:1017E0007047000001491820ABBEFEE7260002004A
:1017F000704720F07F4C80EA030023F07F47ACEB7A
:10180000070303F57C5300F0004003F1FF032DE9CB
:1018100080494FEA154B09B44FEA144325EA0B4EB1
:1018200024EA03480FF2042606EB132749083E7802
:101830005FEA320203FB0667C7F5000707FB06F6FF
:101840004FEA54374FEAD64606F1020607FB066C0C
:10185000CCF1005C4FEA1C472CEA074C07FB06F46E
:101860000CFB06F504EB15464FEA961634BF002034
:101870004FF000404FEAD13706FB07FC4FEA1C4C03
:101880000CFB0BF7D21B03FB0CF761EB07010CFB06
:101890000EF7B0EB074072EB17420CFB08F734BFB2
:1018A000A2EB0742B2EB074261EB17414FEA0C444F
:1018B0004FEA910706FB07FC4FEA1C4C0CFB0BF7A9
:1018C000B0EBC74072EB573203FB0CF734BFA2EB0F
:1018D000C742B2EBC74261EB57310CFB0EF7B0EBDE
:1018E000C70072EB57720CFB08F734BFA2EBC702BC
:1018F000B2EBC70261EB5771039F4FEA816141EA86
:10190000921104EBCC044FEAD1374FEA826206FB16
:1019100007FC42EA90124FEA80604FEA1C4C0CFB35
:101920000BF7D21B03FB0CF761EB07010CFB0EF767
:10193000B0EB074072EB17420CFB08F734BFA2EB89
:101940000742B2EB074261EB17414FEA8C554FEA71
:10195000910704EB9C2406FB07FC4FEA1C4C0CFB94
:101960000BF7B0EBC74072EB573203FB0CF734BFF9
:10197000A2EBC742B2EBC74261EB57310CFB0EF74B
:10198000B0EBC70072EB57720CFB08F734BFA2EB49
:10199000C702B2EBC70261EB577115EB4C254FEA5A
:1019A000816141EA92114FEA82624FEAD13742EAFD
:1019B000901206FB07FC44F100044FEA80604FEAF6
:1019C0001C4C0CFB0BF7D21B03FB0CF761EB070164
:1019D0000CFB0EF7B0EB074072EB17420CFB08F75D
:1019E00034BFA2EB0742B2EB074261EB174115EBA4
:1019F0001C154FEA813141EA92414FEA823242EAB4
:101A000090424FEA80304FEA0C7644F1000448EAF5
:101A100003434EEA0B484FF0000EB2EB080C71EB9B
:101A2000030724BF624639464EEB0E0E4FF0000B03
:101A30000018524149414BEB0B0BB2EB080C71EB18
:101A400003077BF1000B24BF624639464EEB0E0EB6
:101A50004FF0000B0018524149414BEB0B0BB2EB1E
:101A6000080C71EB03077BF1000B24BF624639467B
:101A70004EEB0E0E51EA020718BF46F0010616EBB8
:101A80000E7655F1000254F1000103D5BDE889013D
:101A9000BDE80088BDE88901BDE80048B61952419B
:101AA00041EB0101A3F10103704780807F7E7D7CC3
:101AB0007B7A7978777676757473727171706F6EE0
:101AC0006E6D6C6C6B6A6A6968686766666564648B
:101AD000636362616160605F5F5E5E5D5D5C5C5B15
:101AE0005B5A5A5959585857575656555555545484
:101AF000535352525251515050504F4F4F4E4E4DE2
:101B00004D4D4C4C4C4B4B4B4A4A4A49494948482D
:101B1000484747474746464645454544444444436D
:101B200043434342424242414141000046EA0646A5
:101B3000A3F570534FEA164646EA42564FEAD222C0
:101B400042EA415210B54FEAD121A3F1010300F05E
:101B50002FF820F0004000F1020C00F0004701EBEC
:101B600000501146BCF5006F40EA070000D210BDDE
:101B7000BAF1000F0AD01CB503B44FF004004FF0C7
:101B800004014FF000000FBCBDE810404FF0000111
:101B9000BBF1010FB9BF04484FF0FF3103480021EA
:101BA00040EA070010BD00BFFFFFEF7F0000F07F9D
:101BB000002B9C4630D477002BD01CB54FEA37075A
:101BC00003B44FF010004FF01001BAF1000F06D02F
:101BD000BCF1000FDCBF40F0080040F008014FF0FE
:101BE00000000FBCBDE810400BF1010BBBF1010F71
:101BF00008BF5FEA170722BF12F1010211F10101CC
:101C00004FF0004143F1000300F0004043EA0000C0
:101C10007047F9D35708D0E746EA064613F1400F5C
:101C20004FEA16461FDD13F1200FDFBF16430A46A9
:101C3000002120335B42BED0C3F1200746EA0646AE
:101C400002FA07F74FEA164646EA0706C3F12007ED
:101C500022FA03F201FA07F721FA03F14FF0000329
:101C600042EA0702A7E746EA020646EA06464FEAC4
:101C7000164646EA0106BCBF46EA0646360C4FF059
:101C800000034FF000024FF0000194E72DE9804C73
:101C90009A46934670B491E8380007C831EA400C80
:101CA00048BF34EA430C03D5FFF7A3FDFFF780FFDD
:101CB000F0BCBDE8008C2DE9804C9A46934670B488
:101CC00091E8380007C831EA400C48BF34EA430CB9
:101CD00003D5FFF78EFDFFF729FFF0BCBDE8008CB0
:101CE0002DE9804C9A46934670B491E8380007C8B5
:101CF00010F0804F08BF13F0804F03D100F01AF8A6
:101D0000FFF756FFF0BCBDE8008C2DE9804C9A46E9
:101D1000934670B491E8380007C810F0804F08BFB0
:101D200013F0804F03D100F005F8FFF7FFFEF0BC81
:101D3000BDE8008C20F07F4780EA030023F07F4C51
:101D400007EB0C03A3F57C5300F00040A3F1FE0366
:101D500092F0000F00F0B38095F0000F00F0778054
:101D60002DE901494FEA11404FEA144621EA0048A3
:101D700000FB06FC24EA064708FB06F607FB08F80A
:101D800000FB07F718EB06484CEB164C4FEA124BDA
:101D900018EB07484FEA15464CEB174022EA0B4E6A
:101DA0000BFB06FC25EA06470EFB06F607FB0EFEBC
:101DB0000BFB07F71EEB064E4CEB164C4FF00006E4
:101DC0001EEB074E4CEB174B18EB0B0840F10000D5
:101DD00018EB0E0B58EB000840F100008F1A4FF083
:101DE00000013CBFC943661B14BFB5EB040C0021C6
:101DF0003CBFC943F61B4FEA17444EEA8E0E27EA52
:101E000004454FEA1C4704FB07622CEA074C05FB1C
:101E100007F70CFB05F604FB0CFC16EB074642EB40
:101E2000174216EB0C4642EB1C421BEB060658EB26
:101E30000202414146EA9E0601D5BDE80189B61974
:101E4000524141EB0101A3F10103BDE801894FEAD1
:101E500014454FEA114724EA054621EA074C05FBE1
:101E600007F406FB07F70CFB06F105FB0CFC11EB76
:101E7000074144EB17444FEA124711EB0C4144EB86
:101E80001C4422EA074C05FB07F206FB07F70CFB94
:101E900006F605FB0CFC16EB074642EB174216EB69
:101EA0000C4642EB1C456A1854F1000148BF7047CC
:101EB000B619524141EB0101A3F10103704795F0BE
:101EC000000F37D04FEA11424FEA144721EA024689
:101ED00024EA074C02FB07F106FB07F70CFB06F4AC
:101EE00002FB0CFC14EB074441EB17414FEA15478A
:101EF00014EB0C4441EB1C4125EA074C02FB07F5AF
:101F000006FB07F70CFB06F602FB0CFC16EB07467C
:101F100045EB174516EB0C4645EB1C42121951F1E7
:101F2000000148BF7047B619524141EB0101A3F1CE
:101F3000010370474FEA14454FEA114724EA05466A
:101F400021EA074C05FB07F106FB07F70CFB06F23D
:101F50004FF0000605FB0CFC12EB074241EB17416A
:101F600012EB0C4251EB1C4148BF7047921841EBF9
:101F70000101A3F101037047FEE70000024940227E
:101F8000024804F093BB000074030024F001002415
:101F9000014801F02BB8000084020024014801F040
:101FA00025B80000FC020024294A016891423AD079
:101FB000274A1832914236D0254A3032914232D0E7
:101FC000234A483291422ED0214A603291422AD08F
:101FD0001F4A7832914226D01D4A9032914222D037
:101FE0001B4AA83291421ED01A4A91421BD0194A6C
:101FF0001832914217D0174A3032914213D0154A05
:10200000483291420FD0134A603291420BD0114AAC
:102010007832914207D00F4A9032914203D00D4A54
:10202000A832914211D1CAB21823103AB2FBF3F28E
:102030006FF30901032A02F00703074AD25CC26565
:1020400000D9091D81650846704721F0FF01F9E7B5
:1020500010000240100402400897000830B5224AE0
:10206000012301689142CAB21BD01F4C1434A14213
:1020700017D01D4C2834A14213D01B4C3C34A14234
:102080000FD0194C5034A1420BD0174C6434A142EC
:1020900007D0154C7834A14203D0134C8C34A142A4
:1020A0000CD11421114C083AB2FBF1F10F4A8032E5
:1020B00001F01F0504EB8101AB4010E00C4D18242A
:1020C000103A0D44B2FBF4F1A82D00D80831094AAA
:1020D00001F01F0402EB8101064AA3408032603008
:1020E00080E80E0030BD0000085402580058025825
:1020F000F0FBFDBF0008024010B50279531E072B0C
:102100002DD8174C0168A1421BD0154C1434A142A4
:1021100017D0134C2834A14213D0114C3C34A142A7
:102120000FD00F4C5034A1420BD00D4C6434A1425F
:1021300007D00B4C7834A14203D0094C8C34A14217
:1021400003D10849074C443102E00749064C4431A9
:1021500004EB8202C0E91B2101219940416710BDB7
:1021600008540258FC580258FC08024010B5836914
:102170004FF0C074826A0146002053B1B3F5005F8E
:1021800015D072B1012A0CD0022A0AD0032A09D133
:1021900004E01AB1012A06D0022A03D1C96AC90192
:1021A00000D5012010BDC96AA142FAD010BD002A95
:1021B000F7D0012AF2D0022AF3D0032AF3D010BDBF
:1021C0002DE9F04F804E804FDFF8FC911836DFF894
:1021D000F8A148370468856D0AF1300ADFF8ECB1E0
:1021E0004C45DFF8ECC1DFF8ECE16DD0B4426BD0C8
:1021F000544569D0BC4267D0DFF8D081A8F11808F7
:10220000444561D05C455FD064455DD074455BD08A
:10221000DFF8C481444557D0DFF8BC8108F11808C5
:10222000444551D0DFF8B08108F1300844454BD027
:10223000DFF8A48108F14808444545D0DFF89881CB
:1022400008F1600844453FD0DFF88C8108F1780838
:10225000444539D0DFF8808108F19008444533D0F7
:10226000DFF8748108F1A80844452DD0DFF86C81AF
:10227000444529D0DFF8648108F11408444523D08F
:10228000DFF8588108F1280844451DD0DFF84C815B
:1022900008F13C08444517D0DFF8408108F15008A8
:1022A000444511D0DFF8348108F1640844450BD06F
:1022B000DFF8288108F17808444505D0DFF81C8153
:1022C00008F18C08444509D1D0E91948C4F80480C4
:1022D000C46E1CB1D0E91C48C4F8048004684C45A5
:1022E0002ED0B4422CD054452AD0BC4228D0374EF0
:1022F000183EB44224D05C4522D0644520D07445B9
:102300001ED0354EB4421BD0334E1836B44217D0CF
:10231000314E3036B44213D02F4E4836B4420FD02F
:102320002D4E6036B4420BD02B4E7836B44207D0D7
:10233000294E9036B44203D0274EA836B44215D168
:1023400090F85C603F2406F01F06B440AC6004685F
:10235000256825F4802525602EE09A600068C1601C
:10236000BDE8F08F99600068C260F9E71B4EB44287
:102370001BD01A4E1436B44217D0184E2836B44229
:1023800013D0164E3C36B4420FD0144E5036B442E1
:102390000BD0124E6436B44207D0104E7836B44299
:1023A00003D00E4E8C36B442DAD190F85C60012432
:1023B00006F01F06B4406C60046863608368402BBD
:1023C0000368CFD1C9E70000100002408800024036
:1023D000A0000240B8000240100402400854025815
:1023E000F0B5164C89B0164F01269FED160ADFEDA9
:1023F000160A6760002526812021267068469FED19
:10240000131A84ED0B0AC4ED0D0A84ED041A84F846
:102410007C50FEF706FA0F200095CDE9025669467A
:102420000195CDE90450384601F00AFD60680022AC
:10243000012101F08DFC09B0F0BD0000D40300249F
:10244000B80000246666DE417B142E3F00000000C9
:102450001CB50020FF2300900190FC208DF8043073
:102460008DF805308DF800308DF806308DF801308C
:102470008DF80700084691B28DF802306A468DF853
:102480000330082300F054FA1CBD000070B5324937
:1024900000202DED028B9CB0DFED2E8AB0EE688A15
:1024A00000EB001211F83220022A0BD0401CC0B2FF
:1024B0000228F5D3294E002506EBC5142078012803
:1024C00007D03CE000EB001001EBC00090ED048A67
:1024D000F0E7D4ED040A94ED050A04F1440005F098
:1024E000C9F994F87C0090B1012810D0D4ED180AF5
:1024F000D4ED1A1A94ED190A94ED151A40EE210A3A
:1025000020EE010AC4ED060A84ED080A05E094ED08
:10251000040A84ED060AC4ED088A94ED050AF0EE7B
:10252000480A06F0FDF97022684684ED090A04F1B4
:102530001001FEF744F994E80F0000F011F80520AF
:1025400001F0F4FB6D1C15F0FF05B5D01CB0BDEC1F
:10255000028B70BD0000000054040024D40300244A
:102560000FB40020B2EE091AF0B5FAEE090A2DED0B
:10257000028B83B00090019010209DED100A00F0B6
:1025800014FA9DED120AB3EE0E1AFBEE0E0A064681
:102590000C2000F00AFA9FED248A9DED150A9FEDAC
:1025A000211AF0EE480A05460C2000F0FEF99DEDD8
:1025B000170AB1EE041AF0EE480A04460C2000F0A7
:1025C000F4F99DED130AB2EE041AFAEE040A074676
:1025D0000C2000F0EAF9320A8DF800202A018DF86B
:1025E00001602B0901468DF802303D018DF8044051
:1025F00038098DF8050045EA11238DF8063042EAC6
:1026000014228DF807100823BDF830100B988DF8B0
:1026100003206A4600F08CF903B0BDEC028BF0BCDD
:102620005DF814FB0000FA430000000070B5DDE91E
:102630000B24049B6568854235D1022933D1082BD0
:1026400031D11078217AB1EB101F2CD100F00F009E
:10265000A072D3781179B2F8010052791B0101F010
:102660000F0543EA111640BA1021F2EE090ABAEE3C
:10267000090A42EA052506F03FF984ED050A0C2116
:102680003046F3EE0E0ABBEE0E0A06F035F984ED85
:10269000070A0C212846F2EE040ABAEE040A06F0F4
:1026A0002BF984ED030A70BD704772B6FEE7000097
:1026B000054805490839026842F0020202600868CC
:1026C0008004FCD5704700000C480258014801F016
:1026D000C1BC000018000024014801F0BBBC000090
:1026E00018000024014801F0B5BC0000B800002427
:1026F000014801F0AFBC0000B8000024F0B5036849
:102700004FF6FC716D4C426BD3F884508D4345EA13
:102710008205C3F88450036853F8845F068F25F45C
:102720007F0545EA06451D60836B654D9F1802686D
:10273000D2F888308B4343EA8703C2F888300268B6
:1027400052F8883F868F23F4FE0343EA0643136062
:10275000066856F8A03FC26B8B4307EB420243EA80
:1027600082033360076857F8A03FB0F8406023F455
:10277000FE0343EA06433B60D0E9103603FB062222
:102780000368D3F8B0608E4346EA8206C3F8B060AF
:102790000368B0F84860D3F8B07027F4FE0747EA42
:1027A0000646C3F8B060D0E91267036806FB07224B
:1027B000D3F8AC608E4346EA8206C3F8AC60D0E939
:1027C0001467036806FB0722D3F8F0608E4346EADD
:1027D0008206C3F8F0600368B0F85860D3F8F07070
:1027E00027F47C1747EA0646C3F8F0600368876D54
:1027F00053F8C06F02EB47028E4346EA820119602C
:102800000168B0F85C20D1F8C03023F47C1343EAAF
:102810000242C1F8C020016890F86020D1F8C030B1
:1028200023F07C5343EA0262C1F8C020416B04EB01
:102830008101C166826B01EB82020267C36B02EB0E
:10284000C3024267D0E91034634302EB830282671C
:10285000D0E91234634302EB8302C267D0E9143437
:10286000634302EB8302C0F88020836D02EBC30355
:10287000C0F88430C46D826E544303EB8403C0F807
:102880008830046E544303EB8402C0F89020AA42BF
:102890000AD9D0F89C20032142F02002C0F89C20E5
:1028A00080F898100120F0BD002200E004C1D0F8AB
:1028B00090308B42FAD80020F0BD000000AC004000
:1028C000FCD30040F0B58E680C69D1E9005744EAAA
:1028D0000604DFB145F080452C43866ED1E906C57C
:1028E0004F695E4391F8203045EA0C05B1F80CC001
:1028F000D0F884E0002047EA03630C4F1D430EEB41
:10290000860345EA0C45E3E802450AE044EA8544CB
:10291000E3E71418155C001DD4F8014045EA0424CF
:1029200010C3CC683C5D8442F3D8F0BD109700081A
:10293000F0B589B01C4616460D4624210746684668
:10294000FDF76FFF00200290082CCDE900501CD04D
:10295000072C1CD0062C1CD0052C1CD0042C1CD001
:10296000032C1CD0022C1CD0012C1CD05FF00001C9
:102970003246CDE90310694605900690079008900D
:10298000384601F029FA09B0F0BD0821F0E7072127
:10299000EEE70621ECE70521EAE70421E8E7032159
:1029A000E6E70221E4E70121E2E7B4EEE00AF1EE16
:1029B00010FA71EE601A02D2B0EE600A06E0B4EED0
:1029C000C10AF1EE10FA01DDB0EE410A012170EE0C
:1029D000600A8140491E00EE101AB8EEC00A20EECF
:1029E000800AC0EE210ABCEEE00A10EE100A80B2A6
:1029F0007047000030EE200A10B506F03BF89FED5E
:102A0000010A10BD000000002DE9F84F044602F055
:102A100009F800903CB194F83500022806D08021D6
:102A200061650020E4E00120BDE8F88FC74DC74E86
:102A3000C649183520683036DFF81483DFF8149360
:102A40008842DFF814A3DFF814B32ED0A8422CD0AC
:102A5000B0422AD0404528D0484526D0504524D001
:102A6000584522D0BD4A183290421ED0BC4A9042EE
:102A70001BD0BB4A1832904217D0B94A303290422C
:102A800013D0B74A483290420FD0B54A60329042D4
:102A90000BD0B34A7832904207D0B14A903290427C
:102AA00003D0AF4AA832904209D1026822F01E0238
:102AB00002602068426922F08002426103E00268FD
:102AC00022F00E02026027688F4238464DD0A8429D
:102AD0004BD0B04249D0404547D0484545D05045FD
:102AE00043D0584541D09D4A183290423DD09C4A2F
:102AF00090423AD09A4A1832904236D0984A3032B0
:102B0000904232D0964A483290422ED0944A603257
:102B100090422AD0924A7832904226D0904A9032FF
:102B2000904222D08E4AA83290421ED08D4A9042C6
:102B30001BD08C4A1432904217D08A4A28329042D5
:102B400013D0884A3C3290420FD0864A503290428D
:102B50000BD0844A6432904207D0824A7832904245
:102B600003D0804A8C32974204D1206E026822F44E
:102B70008072026075492068884228D0A84226D019
:102B8000B04224D0404522D0484520D050451ED0E8
:102B900058451CD071491831884218D07049884274
:102BA00015D06F491831884211D06D4930318842B3
:102BB0000DD06B494831884209D06949603188425B
:102BC00005D067497831884201D065499031016864
:102BD00021F0010101600EE001F024FF0099401A8C
:102BE000052808D9202262650321002084F83510C9
:102BF00084F8340017E73868C007EDD1534A012143
:102C0000206890422ED0A8422CD0B0422AD0404515
:102C100028D0484526D0504524D0584522D04F4B87
:102C2000183398421ED04E4B98421BD04C4B183351
:102C3000984217D04A4B3033984213D0484B483310
:102C400098420FD0464B603398420BD0444B7833B8
:102C5000984207D0424B9033984203D0404BA83360
:102C6000984208D194F85C703F23A06D07F01F07CD
:102C7000BB40836007E094F85C30A06D03F01F0355
:102C800001FA03F34360206890424DD0A8424BD034
:102C9000B04249D0404547D0484545D0504543D043
:102CA000584541D02D4A183290423DD02C4A90428E
:102CB0003AD02B4A1832904236D0294A30329042CC
:102CC00032D0274A483290422ED0254A6032904274
:102CD0002AD0234A7832904226D0214A903290421C
:102CE00022D01F4AA83290421ED01E4A90421BD0CA
:102CF0001C4A1432904217D01A4A2832904213D0FC
:102D0000184A3C3290420FD0164A503290420BD0B3
:102D1000144A6432904207D0124A7832904203D06B
:102D2000104A8C3290420BD1D4E919024260E06E15
:102D300030B1026822F480720260D4E91C02426061
:102D4000002084F8351084F834006DE6100002404D
:102D5000580002407000024088000240A00002407B
:102D600010040240085402582DE9F05F28B190F891
:102D70003510022904D0802141650120BDE8F09F73
:102D8000904C904B0168183C18338E4ADFF83C9207
:102D9000A1428D4CDFF838E28E4FDFF83CB2DFF80D
:102DA0003CA28F4D8F4E31D091422FD099422DD0E1
:102DB000A1422BD0494529D0714527D0B94225D011
:102DC000DFF810C20CF1180C61451FD0DFF808C203
:102DD000ACF1600C614519D0DFF8FCC1ACF1480CD6
:102DE000614513D0DFF8F0C1ACF1300C61450DD076
:102DF000DFF8E4C1ACF1180C614507D0594505D0A6
:102E0000514503D0A94201D0B1422CD1DFF8B4C161
:102E10004FF0040880F83580ACF1180C61451DD0E6
:102E200091421BD0994219D0A14217D0494515D0E3
:102E3000714513D0B94211D06648183081420DD087
:102E400065486038814209D063484838814205D0DE
:102E500061483038814201D05F481838086820F056
:102E600001000860ABE0D1F800C02CF00E08DFF8DC
:102E700054C1C1F80080ACF1180C0168614527D03D
:102E8000914225D0994223D0A14221D049451FD05B
:102E900071451DD0B9421BD0DFF838C10CF1180CB8
:102EA000614515D0DFF830C1ACF1600C61450FD041
:102EB000DFF824C1ACF1480C614509D0DFF818C136
:102EC000ACF1300C614503D0DFF80CC1ACF1180C4B
:102ED000D1F800C02CF0010CC1F800C0DFF8E4808C
:102EE0004FF0010C0168A8F11808414546D0914205
:102EF00044D0994242D0A14240D049453ED071458C
:102F00003CD0B9423AD0334A1832914236D0324A94
:102F1000603A914232D0304A483A91422ED02E4AFD
:102F2000303A91422AD02C4A183A914226D059453B
:102F300024D0514522D0A94220D0B1421ED02A4AE5
:102F400091421BD0284A1432914217D0264A283287
:102F5000914213D0244A3C3291420FD0224A50323F
:102F600091420BD0204A6432914207D01E4A7832F7
:102F7000914203D01C4A8C32914218D1016E0A68EA
:102F800022F480720A6090F85C20816D02F01F02CA
:102F90000CFA02F24A60D0E919124A60C16E31B1EE
:102FA0000A6822F480720A60D0E91C124A6000228A
:102FB000016D80F835C080F8342001B188470020C9
:102FC000DCE6000028000240580002407000024089
:102FD00088000240A00002407004024088040240C1
:102FE000A0040240B8040240085402582DE9FC5FD6
:102FF0000446F74E0020DFF8D88300904FF41652B5
:10300000F44808F11808A56DDFF8C493DFF8C0A3F1
:10301000016809F1300920680AF1480AB1FBF2F1B0
:10302000B04201912F68D5F800C0DFF8ACB335D0BD
:103030004146884232D0484530D050452ED0584580
:103040002CD0E5491831884228D0E34930318842F4
:1030500024D0E1494831884220D0E04988421DD03F
:10306000DE491831884219D0DC493031884215D008
:10307000DA494831884211D0DFF860E30EF1600E82
:1030800070450BD0D54A7832904207D0D34B90335D
:10309000984203D0D149A83188427DD194F85C2070
:1030A000082102F01F0201FA02F23A424AD0B0426D
:1030B00032D0404530D048452ED050452CD05845D0
:1030C0002AD0C54A1832904226D0C34A30329042A4
:1030D00022D0C14A483290421ED0C04A90421BD0F2
:1030E000BE4A1832904217D0BC4A3032904213D0B8
:1030F000BA4A483290420FD0B84A603290420BD060
:10310000B64A7832904207D0B44A9032904203D007
:10311000B24AA832904203D1026802F0040202E0EF
:10312000026802F008026AB1026822F0040202603A
:1031300094F85C0000F01F008140A960606D40F0D1
:103140000100606594F85C00012100F01F008140DF
:10315000394240D02068B04234D0404532D0484552
:1031600030D050452ED058452CD09B4A1832904232
:1031700028D0994A3032904224D0974A483290421F
:1031800020D0964A90421DD0944A1832904219D0CD
:10319000924A3032904200E0AFE113D08F4A483279
:1031A00090420FD08D4A603290420BD08B4A7832D9
:1031B000904207D0894A9032904203D0874AA83281
:1031C00090427DD1406910F0800F04D0A960606DFD
:1031D00040F00200606594F85C00042100F01F00DC
:1031E000814039423ED02068B04232D0404530D094
:1031F00048452ED050452CD058452AD0764A183212
:10320000904226D0744A3032904222D0724A4832DC
:1032100090421ED0714A90421BD0704A18329042A0
:1032200017D06E4A3032904213D06C4A48329042E6
:103230000FD06A4A603290420BD0684A783290428E
:1032400007D0664A9032904203D0644AA832904236
:103250004ED1006810F0020F04D0A960606D40F0FC
:103260000400606594F85C00102100F01F008140AC
:10327000394258D02068B04234D0404532D0484519
:1032800030D050452ED058452CD0534A1832904259
:1032900028D0514A3032904224D04F4A483290428E
:1032A00020D04E4A90421DD04C4A1832904219D03C
:1032B0004A4A3032904215D0484A4832904200E0A3
:1032C00014E00FD0454A603290420BD0434A783226
:1032D000904207D0414A9032904203D03F4AA832F0
:1032E000904207D1006800F0080006E0006872E72D
:1032F0000068B7E7006800F00400A0B1A96020688A
:103300000168490304D50068000308D5A16C07E0F3
:103310000168C90503D4016821F008010160216C2E
:1033200009B12046884794F85C00202100F01F0076
:103330008140394279D02068B04232D0404530D007
:1033400048452ED050452CD058452AD0224A183214
:10335000904226D0204A3032904222D01E4A483233
:1033600090421ED01D4A90421BD01C4A18329042F7
:1033700017D01A4A3032904213D0184A483290423D
:103380000FD0164A603290420BD0144A78329042E5
:1033900007D0124A9032904203D0104AA83290428D
:1033A00003D1006800F0100002E0006800F00200A5
:1033B000B0B3A96094F835000428206801680FD0E4
:1033C00049037ED5006800032BD4616C2AE000001D
:1033D000100002401000002470000240100402405F
:1033E00021F0160101602068416921F080014161EE
:1033F000206C08B9A06C20B12068016821F0080198
:10340000016094F85C303F21012003F01F0300228B
:103410009940A96084F8350084F83420216D65E076
:1034200003E0E16B09B120468847606D00287DD03C
:10343000606DC00759D02068042184F83510B0426F
:103440002BD0404529D0484527D0504525D0584558
:1034500023D09D49884220D09B49183188421CD0F6
:1034600099493031884218D09849884215D09749F7
:103470001831884211D09549303188420DD0934996
:103480004831884209D091496031884205D08F493E
:103490007831884201D08D499031016821F00101D5
:1034A000016020680099019A491C0091914202D85C
:1034B0000168C907F6D10068C00710D003200FE0EB
:1034C000FFE70168C905ACD403680121002223F09D
:1034D0001003036084F8351084F83420A1E701203C
:1034E00084F83500002084F83400E16C00291DD0F8
:1034F00002B02046BDE8F05F0847754988421DD0FC
:1035000073491431884219D071492831884215D045
:103510006F493C31884211D06D49503188420DD0FD
:103520006B496431884209D0694900E084E0783110
:10353000884203D066498C3188427DD194F85C8002
:103540000427016808F01F0807FA08F717EA0C0FAC
:10355000009746D04F0744D500980F04686003D504
:10356000C8033CD4A16CC1E7880638D42068B042B7
:103570002DD055496039884229D0484527D050453B
:1035800025D0584523D05049884220D04E49183183
:1035900088421CD04C493031884218D04B4988426F
:1035A00015D04A491831884211D0484930318842F3
:1035B0000DD046494831884209D0704507D0904225
:1035C00005D0984203D04149A831884203D101680F
:1035D00021F0080102E0016821F004010160216C82
:1035E00084E7022707FA08F717EA0C0F00974ED076
:1035F0008F074CD500980F04686003D5C80344D4E6
:10360000616C73E7880640D42068B0422FD02E4901
:10361000603988422BD0484529D0504527D058459D
:1036200025D02949884222D02749183188421ED006
:1036300025493031884200E044E018D023498842CF
:1036400015D022491831884211D0204930318842A2
:103650000DD01E494831884209D0704507D09042AC
:1036600005D0984203D01949A831884203D1016896
:1036700021F0140102E0016821F00A01016001213A
:1036800084F83510002084F83400E16B2EE708221E
:1036900002FA08F212EA0C0F14D0090712D50168D9
:1036A00021F00E01016094F85C100120002201F06D
:1036B0001F0100FA01F16960606584F8350084F843
:1036C000342012E7BDE8FC9F88000240100402404D
:1036D000085402582DE9F05F044601F0A3F9002CCC
:1036E00007467DD0E24E022120684FF00308DFF844
:1036F00084934FF00005DFF880A3B042DFF87CB37D
:1037000034D0DB4A1832904230D048452ED0504554
:103710002CD058452AD0D94A1832904226D0D74AC0
:103720003032904222D0D54A483290421ED0D44AFC
:1037300090421BD0D24A1832904217D0D04A303231
:10374000904213D0CE4A483290420FD0CC4A6032D9
:1037500090420BD0CA4A7832904207D0C84A903281
:10376000904203D0C64AA83290427DD184F83510E9
:10377000B04284F834502ED0BD49183188422AD046
:10378000484528D0504526D0584524D0BB4918314B
:10379000884220D0B949303188421CD0B7494831DD
:1037A000884218D0B649884215D0B54918318842A8
:1037B00011D0B349303188420DD0B14948318842E7
:1037C00009D0AF496031884205D0AD49783188428F
:1037D00001D0AB499031016821F00101016008E09E
:1037E00025E100BF01F01EF9C01B052801D92021E9
:1037F0001AE120680068C007F4D1D4E90203216807
:10380000103418438E4694E88410D4E903380968CC
:103810003A4310439B4A40EA0C0067691843114041
:10382000103C40EA0800042F40EA010003D1D4E92B
:103830000B12114308436168A1F12902052A0BD933
:10384000163A032A08D9083A012A05D9083A032A60
:1038500002D97439032901D840F48010CEF8000051
:103860002068676A406900E020E0042F20F007002C
:1038700047EA00070DD1D4E90A01074349B12046C0
:10388000FEF774FC28B140206065012184F83510F2
:10389000CDE0206847612046FEF786FB94F85C2067
:1038A0003F2102F01F029140816055E0764A90422C
:1038B0001BD0754B1433984217D0734B2833984262
:1038C00013D0714B3C3398420FD06F4B503398421A
:1038D0000BD06D4B6433984207D06B4B78339842D2
:1038E00003D0694B8C3398427ED184F8351084F82C
:1038F0003450664B0168A26801EA030E402A74D076
:10390000802A73D05FF00002D4E90378D4E905314E
:1039100042EAD70242EAD8085B4AD4E9077C48EA7F
:10392000D30848EAD10141EAD701524241EA1C11C9
:10393000142341EA0E01016020681044B0FBF3F04B
:103940008000E0652046FEF72FFB94F85C20012103
:1039500002F01F02914041602068B04257D04449B4
:103960001831884253D0484551D050454FD0584522
:103970004DD042491831884249D0404930318842BF
:1039800045D03E494831884241D03D4988423ED0E9
:103990003B49183188423AD039493031884236D0D3
:1039A00037494831884232D03549603188422ED07B
:1039B0003349783188422AD031499031884226D023
:1039C0002F49A831884222D02F4988421FD02E4942
:1039D000143188421BD02C492831884217D02A49FB
:1039E0003C31884213D002E01DE017E018E0264980
:1039F000503188420BD024496431884207D0224993
:103A00007831884203D020498C31884229D1204620
:103A1000FEF724FBA06880280CD00CE0102273E78E
:103A20004FF4804270E74021616584F835800120C1
:103A3000BDE8F09F6560216E20790860D4E9190126
:103A400041606068401E072808D82046FEF754FBF6
:103A5000E06E0560D4E91C01416002E0E56625677F
:103A600065670120656584F835000020E0E7000007
:103A70001000024040000240580002407000024026
:103A8000100402403F8010FE085402580F00FEFF51
:103A90002DE9F84F04008C464FF00000009014D040
:103AA00094F83400012812D094F8355001200021F8
:103AB00084F83400012D0CD0C00260650120009014
:103AC00084F834100098BDE8F88F0120FBE702204D
:103AD000F9E78C4D0226206884F83560A8428A4DAB
:103AE00061658A4E8A4FDFF82C82DFF82C92DFF86E
:103AF0002CA2DFF82CB226D0A84224D0B04222D08B
:103B0000B84220D040451ED048451CD050451AD060
:103B1000584518D08349884215D0824918318842C7
:103B200011D08049303188420DD07E4948318842D9
:103B300009D07C496031884205D07A497831884281
:103B400001D078499031016821F00101016061469E
:103B50002046FEF735FB6B49206888422CD0A842EE
:103B60002AD0B04228D0B84226D0404524D048457B
:103B700022D0504520D058451ED06A4A90421BD0D2
:103B8000684A1832904217D0664A3032904213D0B9
:103B9000644A483290420FD0624A603290420BD061
:103BA000604A7832904207D05E4A9032904203D009
:103BB0005C4AA83290420CD1026822F01E0242F008
:103BC00016020260206C88B12068026842F0080288
:103BD0000BE0026822F00E0242F00A020260206C42
:103BE00020B12068026842F0040202602068884226
:103BF0004BD0A84249D0B04247D0B84245D040450A
:103C000043D0484541D050453FD058453DD0454A26
:103C100090423AD0434A1832904236D0414A30322C
:103C2000904232D03F4A483290422ED03D4A6032D4
:103C300090422AD03B4A7832904226D0394A90327C
:103C4000904222D0374AA83290421ED0364A904243
:103C50001BD0354A1432904217D0334A2832904252
:103C600013D0314A3C3290420FD02F4A503290420A
:103C70000BD02D4A6432904207D02B4A78329042C2
:103C800003D0294A8C3290420DD1206E0268D203B3
:103C900003D5026842F480720260E06E18B10268D7
:103CA00042F4807202602068884226D0A84224D064
:103CB000B04222D0B84220D040451ED048451CD04A
:103CC00050451AD0584518D01649884215D0154984
:103CD0001831884211D01349303188420DD0114932
:103CE0004831884209D00F496031884205D00D49DA
:103CF0007831884201D00B499031016841F00101CF
:103D00000160DFE61000024028000240400002404F
:103D1000580002407000024088000240A0000240AB
:103D2000B8000240100402400854025870B504461E
:103D300000F078FE0546601C02D004480078044478
:103D400000F070FE401BA042FAD370BD04000024B6
:103D500010B590F89830012B09D0022B07D0D0F87D
:103D60009C1041F00201C0F89C10012010BD0368B6
:103D70009C6D0C4203D1DC6D44F0010404E09C6DA9
:103D800031EA04041FD00324DC658B0505D50368E4
:103D9000D3F8E0401443C3F8E0404B0505D5036871
:103DA000D3F8E4401443C3F8E4400068084A01EA49
:103DB0000203446D074A1C434465106840EA917051
:103DC0001060002010BDDC6D44F00204DCE7000050
:103DD000FFFFCF3F14A8004070B5044690F898004C
:103DE000022804D0D4F89C0040F008000DE02068C0
:103DF000D0F8C03013F07C5F0BD0D0F8C4309B02F9
:103E00000CD5D4F89C0040F40070C4F89C0001204C
:103E100070BDD4F89C0040F02000F6E7D0F8C40054
:103E2000C0F3044520462B46FEF74CFD21680120D7
:103E3000A840C1F8D000C4F89400002070BD7047BD
:103E400070B590F89820012A09D0022A07D0D0F83E
:103E50009C1041F00201C0F89C10012070BD0B685D
:103E6000CA6883B10B69072A43EA427325D00C7AEA
:103E70004A6942EA84724968006F00EBC100C0E9F8
:103E80000032002070BD072A0DD00C7AD6060D8AAC
:103E90004B6943EA847246EA0543C06E49681A4397
:103EA00040F82120EDE70B8A4FF06055D1E9062458
:103EB00042EA034245EA0423EFE78A69DBE77047F9
:103EC00070470000F0B590F898500024022D04D0FF
:103ED000D0F89C1041F0080129E0402905D0412983
:103EE00029D0056D8D4219D942E00568D5F8A0604A
:103EF00016F4FE0F12D0D5F8A460760613D0D5F8CC
:103F0000A460F60105D5D5F8A06016F0004F00D5E5
:103F10000124D5F8A470466F456C24E0D0F89C10BD
:103F200041F0200103E0D0F89C1041F48071C0F80A
:103F30009C100120F0BD0568D5F8B06016F4FE0FA6
:103F4000ECD0D5F8B4607606EDD0D5F8B460F601C3
:103F500005D5D5F8B06016F0004F00D50124D5F88E
:103F6000B470866FC56CC7F305273C44654302E017
:103F7000456DC66F4D4306EB85052E6816F08046ED
:103F800056602E6836D026F060461660D5F800C020
:103F900000262E4F0CF0005CC2F808C0D5F800C017
:103FA0000CF0004CC2F810C0B5F804C01FFA8CFC2D
:103FB000C2F81CC0D5F804C0CCF3034CC2F80CC046
:103FC000D5F804C00CF4801CC2F814C0D5F804C0A5
:103FD0000CF4001CC2F818C0D5F804C0CCF3066C71
:103FE000C2F820C0D5F804C008354FEADC7CC2F81E
:103FF00024C008E0C6F38A46C7E700BF15F806C02C
:1040000003F806C0761CD2F80CC017F80CC0B445F3
:10401000F4D840290AD041290CD020294FF00102C0
:104020000CD200688A40C0F898200DE00068C0F803
:10403000A84009E00068C0F8B84005E0006801F059
:104040001F018A40C0F89C200020F0BD1097000896
:10405000704700002DE9FF5FDFF80CB304460BF159
:104060000401DBF8000025680F68AA468007D5F830
:104070005090696DD5F850806E6D2A6DD5F854C09A
:104080002B6D00EA8770009009F470496F6D286D00
:1040900001EA09010191DAF85410DAF85490DAF8DB
:1040A000505008F00F0806EA0806029602F0F002E7
:1040B00003F071536FEA09061F4000F060700CEACC
:1040C000020CCDF80CC0F20501EA00090CD4E8435B
:1040D000C00509D400214FF48073CAF85030CBF8E2
:1040E00000102046FFF7B4FF700512D4E8434005E6
:1040F0000FD4206800234FF48068D0F8DC20D0F87B
:10410000E410C0F85080CBF800301140204600F099
:1041100070FBDFF858A2009850B12268830F00EAC4
:104120000A001065CBF8003020460099FFF787FEA3
:10413000019850B12268830F00EA0A001065CBF89D
:1041400000302046019900F056FB029850B12268D9
:10415000830F00EA0A001065CBF800302046029970
:1041600000F0CEFA039850B12268830F00EA0A00EB
:104170001065CBF800302046039900F0EDFA3005C9
:104180000CD4E843000509D4236800204FF40062F2
:104190001A65CBF80000204600F02EFBB00512D4C3
:1041A000E84380050FD4206800234FF40078D0F84E
:1041B000D820D0F8E010C0F85080CBF80030114083
:1041C000204600F017FB30030CD4E843000309D469
:1041D000236800204FF400221A65CBF80000204627
:1041E00000F08CFAF0030CD4E843C00309D4236830
:1041F00000204FF480321A65CBF80000204600F012
:10420000F7FA70030CD4E843400309D42268002075
:104210004FF480231365CBF80000204600F0E7FA46
:10422000B0030FD4E84380030CD4236800204FF47C
:1042300000321A65CBF80000D4F89C0040F08000F2
:10424000C4F89C00B9F1000F0BD022684FEA9973B3
:1042500009EA0A001065CBF8003049462046FFF70E
:104260002FFE5FB12268BB0F07EA0A001065CBF88A
:104270000030D4F89C003843C4F89C003C492068C6
:10428000884268D1606881468068800763D0D9F829
:104290002060D9F82410D9F82080D9F82400D9F862
:1042A00020C0D9F82470D9F82030D9F82450D9F892
:1042B000202003F4FC4306F00F0AD9F824601D40C7
:1042C000D9F824B008F030080CF4C07C02F4F022D5
:1042D00011EA0A0100EA080807EA0C0706EA0206E2
:1042E000D9F820A004D0C9F82010204600F07CFAAC
:1042F000B8F1000005D0616808624146204600F030
:1043000075FA6FEA0B0040060ED46FEA0A00400609
:104310000AD460684021C36BC26B01622046190C4D
:1043200002F03F0200F061FA2FB16068076239467F
:10433000204600F058FA35B160680562D4F89C0058
:104340002843C4F89C0036B160680662D4F89C002B
:104350003043C4F89C00D4F89C00002802D02046CA
:10436000FFF7ADFDBDE8FF9F10A80040FFFFCF3F66
:1043700000A000402DE9F04194B08D494C22044644
:104380006846FCF71CFA64B18A4D2068A84202D145
:1043900000F58070606094F898004FF0000820B13C
:1043A00008E0012014B0BDE8F081204684F899802F
:1043B00000F002F92068816921F01001816100F0AC
:1043C00031FB0327064604E000F02CFB801B0A2883
:1043D00011D8206880690007F6D42068816941F00F
:1043E0000101816100F01EFB06460DE000F01AFBA2
:1043F000801B0A2808D9D4F89C0040F00100C4F8BA
:104400009C0084F89870CCE720688069C007EDD0E4
:104410002068816941F002018161207C01282068C7
:10442000816937D041F040018161607C01282068BA
:10443000816932D021F480418161A07C012820680B
:1044400081692DD041F4805181612068A268816921
:1044500021F44071114381612068816921F0A40138
:1044600081612068016921F010010161E068012883
:1044700019D010B302281BD02068816941F0800157
:1044800081612068016941F010010161E068032841
:104490000ED012E021F04001C6E741F48041CBE7A5
:1044A00021F48051D0E72068816941F0040103E0E4
:1044B0002068816941F020018161207E6FF0FF0258
:1044C000D4E90773A68A1102400602EB0727A0F180
:1044D0000070384327685B1E184301EB06463043E3
:1044E000F861A068B0F5407F11D104F12800A68CD6
:1044F0006FF00F0C89C801EB0641401E02EB03224E
:10450000104322680CEB071318430843D060206E59
:1045100030B12068626ED0F8C0101143C0F8C010EE
:10452000D4E917126846D14209D02168A36E51F828
:10453000C82F50F8233022F007021A430A60216C7A
:1045400049B12168626C51F8BC3F50F8226023F0F9
:10455000070232430A60A16C51B12168E36C51F843
:10456000BC2F50F8233022F0700242EA03120A6096
:10457000216D51B12168626D51F8BC3F50F82200A5
:1045800023F4E06242EA002008602068A84204D1D7
:104590006068816821F003018160C4F89480012182
:1045A000C4F89C8084F898102046FEF7A7F8F9E636
:1045B0002097000800A000402DE9F043B5B08046E8
:1045C00014212EA8FCF72DF9B8216846FCF729F92B
:1045D000454D0026D8F800004FF08051434A0C3D6D
:1045E000404F4FF00208404C90424FF0090938D13B
:1045F00000201B914A13CDE90020684600F03CFCE6
:1046000008B1FEF752F83868401C3860012807D11D
:10461000206840F480702060206800F4807033903F
:10462000286840F008002860286803222E922EA9EE
:1046300000F00800CDE92F863196CDE932902C4864
:1046400000F0DCF800221320114600F063FA13207A
:1046500000F052FA00221520114600F05BFA1520F6
:104660003BE0244A90423AD100201B914FF4004293
:10467000CDE90020684600F0FFFB08B1FEF715F811
:104680003868401C3860012807D1206840F48070E9
:104690002060206800F480703390286840F00200A9
:1046A0002860286860222E922EA900F00200CDE931
:1046B0002F863196CDE932900F4800F09FF8002206
:1046C0001420114600F026FA142000F015FA0022FA
:1046D0001620114600F01EFA162000F00DFA35B033
:1046E000BDE8F08300000024EC44025800A0004024
:1046F000000C025800A4004000040258704700005B
:104700002DE9F04196B080460020402113AB139074
:1047100009AA14904046FFF7D5FB0E4F002413AEB4
:104720000DF1300507EBC41029461C22CDE90760C6
:104730006846FCF744F80DF1240C40469CE80E0056
:10474000FDF774FF641C14F0FF04EBD016B0BDE855
:10475000F0810000D40300242DE9F04196B080469A
:104760000020412113AB139009AA14904046FFF793
:10477000A9FB0F4F002413AE0DF1300504EB04101C
:1047800029461C2207EBC000CDE907606846FCF70C
:1047900016F80DF1240C40469CE80E0002F0A6FC31
:1047A000641CE4B2022CE9D316B0BDE8F08100002D
:1047B0005404002490F89810012907D0D0F89C10D8
:1047C00041F00401C0F89C1001207047022180F8DC
:1047D0009810002201688B6923F001038B61C0F8F7
:1047E0009C2010467047704770477047704770476D
:1047F0007047704770477047704700002DE9F84FC9
:1048000003247A4D00234FF001094FF0B04B4FF0D5
:104810000F0AE4E009FA03F6324078D00F7907F086
:104820000307012F01D0022F1AD187684FEA430EE8
:10483000D1F80CC004FA0EF827EA08070CFA0EFCAF
:104840004CEA070CC0F808C0476891F804C0B743A9
:10485000CCF3001C0CFA03FC4CEA070CC0F804C0B3
:104860000E79F643B6070BD0C6684FEA43088F6847
:1048700004FA08FC26EA0C0607FA08F73743C76073
:104880000E7906F00306022E12D1DE080F694FEAF8
:10489000437C00EB8606B646366A4FEADC6C0AFAC1
:1048A0000CF807FA0CF726EA08063743CEF8207012
:1048B0000F7906684FEA430807F0030704FA08FC7B
:1048C00007FA08F726EA0C06374307604E6816F425
:1048D000403F1CD0464E376847F0020737603668C5
:1048E0009F0706F00206009623F0030606F1B04685
:1048F000B6463F0FD6F80864DFF8F8800AFA07FCDE
:10490000404526EA0C0603D14FF0000C3AE065E082
:10491000DFF8E4C0604502D14FF0010C32E0DFF86F
:10492000DCC0604502D14FF0020C2BE0DFF8D0C0B4
:10493000604502D14FF0030C24E0DFF8C8C06045A9
:1049400002D14FF0040C1DE0DFF8BCC0604502D17D
:104950004FF0050C16E0DFF8B4C0604502D14FF00F
:10496000060C0FE0DFF8A8C0604502D14FF0070C3D
:1049700008E0DFF8A0C0604502D14FF0090C01E06B
:104980004FF00A0C0CFA07FC4CEA060CCEF808C4EF
:104990004F68DBF80060FF0226EA020600D51643E6
:1049A0005F46CBF80060D1F804C0DBF804605FEA32
:1049B0008C2C26EA020600D516437E606E684F688E
:1049C00026EA0206BF0300D516436E602E684F68C4
:1049D00026EA0206FF0300D516432E605B1C0A6818
:1049E00032FA03F67FF416AFBDE8F88F8000005866
:1049F000F44402580000025800040258000802580B
:104A0000000C0258001002580014025800180258F6
:104A1000001C0258002402580AB181617047090441
:104A2000FBE7000001488068704700000400002494
:104A300002488168027811448160704704000024B4
:104A4000032010B500F086F801F028F80F4A10494D
:104A500014681368C4F3032203F00F038A5CC95C73
:104A600002F01F0201F01F01D0400A4A20FA01F1B2
:104A70001160094908600F2000F010F808B101200A
:104A800010BD00F02BF8002010BD000018440258A3
:104A900094970008140000241000002470B50D4DF8
:104AA00004462878A0B14FF47A71B1FBF0F00A49BE
:104AB0000968B1FBF0F001F06AFB48B9102C07D28D
:104AC00000222146501E00F025F800206C6070BDC9
:104AD000012070BD0400002410000024054808B522
:104AE000016841F002010160006800F002000090DE
:104AF00008BD0000F4440258002809DB410900F019
:104B00001F028900012001F1E0219040C1F800015D
:104B1000704700000E4BF0B41B680D46C3F3022330
:104B2000C3F10706042E00D90426191D072901D256
:104B3000002300E0DB1E012404FA06F19C40491E1C
:104B40002940641E994014402143F0BC03F010BF7B
:104B50000CED00E0064900F0070210B54FF6FF0427
:104B60000868044B204040EA02201843086010BD4A
:104B70000CED00E00000FA05134970B50A68D24355
:104B8000520705D5096801F00701814213D118E0E9
:104B90000A6822F0070202430A60FFF743FF0A4D4A
:104BA0004FF47A760446083D07E000BFFFF73AFF6E
:104BB000001BB04201D9012070BD2868C0438004A9
:104BC000F4D4002070BD00000C48025810B500F06D
:104BD0001FFF05490968054AC1F30211515C01F044
:104BE0001F01C84010BD00002044025894970008DF
:104BF000494930B5484C0B1D0A68143409681D68D2
:104C0000246802F00303C5F30012C1F30531C4F3B5
:104C1000CC04002914FB02F200EE102AF8EE400A40
:104C200075D03F4A9FED3D1AB7EE000A6BB1DFED3C
:104C30003D1A012B01D0022B64D002EE101A11682C
:104C4000F8EE422A81EEA22A21E0334C283C236868
:104C50009B0612D5344B246801EE901A1168C4F3F8
:104C6000C104F8EE612AE34001EE903AC1F3080175
:104C7000F8EE611A81EEA22A0BE001EE901ADFED48
:104C80002B2A00BFF8EE611A116882EEA12AC1F347
:104C9000080101EE901A1168F8EE611A40EE811ACF
:104CA00071EE800A62EE200AC1F3462101EE101A6D
:104CB000B8EE411A31EE001AC0EE811ABCEEE11ACC
:104CC00080ED001A1168C1F3064101EE101AB8EE2A
:104CD000411A31EE001AC0EE811ABCEEE11A80EDE5
:104CE000011A1168C1F3066101EE101AB8EE411AFB
:104CF00031EE000A80EE801ABCEEC10A80ED020A95
:104D000030BD04E001EE901ADFED092ABAE7002178
:104D1000016041608160F3E72844025800000039D7
:104D2000384402580024744A0090D0030024744C84
:104D3000001BB74B494930B5484C0B1D0A681C3461
:104D400009681D68246802F00303C5F30022C1F35B
:104D50000551C4F3CC04002914FB02F200EE102A22
:104D6000F8EE400A75D03F4A9FED3D1AB7EE000AB3
:104D70006BB1DFED3D1A012B01D0022B64D002EEA6
:104D8000101A1168F8EE422A81EEA22A21E0334C73
:104D9000283C23689B0612D5344B246801EE901AF8
:104DA0001168C4F3C104F8EE612AE34001EE903AC1
:104DB000C1F30801F8EE611A81EEA22A0BE001EEC0
:104DC000901ADFED2B2A00BFF8EE611A116882EE0F
:104DD000A12AC1F3080101EE901A1168F8EE611AD8
:104DE00040EE811A71EE800A62EE200AC1F346217C
:104DF00001EE101AB8EE411A31EE001AC0EE811A17
:104E0000BCEEE11A80ED001A1168C1F3064101EE13
:104E1000101AB8EE411A31EE001AC0EE811ABCEE3B
:104E2000E11A80ED011A1168C1F3066101EE101A52
:104E3000B8EE411A31EE000A80EE801ABCEEC10ACB
:104E400080ED020A30BD04E001EE901ADFED092A80
:104E5000BAE70021016041608160F3E7284402580D
:104E600000000039404402580024744A0090D003E6
:104E70000024744C001BB74B2DE9FE4F0546DFF8AC
:104E800000A450F8081B0024FD4FC943019005F110
:104E9000280026460AF1240A009008011DD4686EF5
:104EA00050B1B0F5801F0CD0B0F5001F0ED0B0F59A
:104EB000401F1ED001240FE0386840F400303860F5
:104EC00017E00198022102F087FB03E0009802211D
:104ED00002F012FC04000CD026462888C043C0050E
:104EE00023D4A86D05281ED2DFE800F00C11161B94
:104EF0001B006A6EDAF8001021F440111143CAF861
:104F00000010EAE7386840F40030386009E00198A2
:104F1000002102F061FB03E00098002102F0ECFBAD
:104F20000446C4B100E0012426462888DFF85083F7
:104F3000C04308F12C0840052FD4D5F8A400B0F5E3
:104F4000C00F28D010DCB8B1B0F5001F19D0B0F5F3
:104F5000800F0FD11AE0AA6DDAF8001021F00701D6
:104F60001143CAF80010E0E7B0F5000F13D0B0F518
:104F7000200F10D001240FE0386840F40030386072
:104F800009E00198002102F027FB03E000980021CE
:104F900002F0B2FB044694B126462888C0430005BF
:104FA00030D4D5F8A800B0F1407F29D011DCC0B1D1
:104FB000B0F1807F1AD0B0F1007F10D11BE0D5F89E
:104FC000A420D8F8001021F460011143C8F80010A3
:104FD000E3E7B0F1806F13D0B0F1A06F10D00124DF
:104FE0000FE0386840F40030386009E00198002193
:104FF00002F0F2FA03E00098002102F07DFB044683
:1050000094B126462868DFF878B2C0430BF1200B34
:1050100080011FD4E86CD8B110280FD0202812D0FE
:10502000302815D0012414E0D5F8A820D8F80010B5
:1050300021F0E0611143C8F80010E3E7386840F45C
:105040000030386004E00198022102F0C5FA0446FD
:1050500074B126462888C043C0042BD4E86DB0F54F
:10506000005F20D00DDCA0B1B0F5805F0FD115E05E
:10507000EA6CDBF8001021F030011143CBF800108E
:10508000E8E7B0F5405F13D0B0F5804F10D00124B1
:105090000FE0386840F40030386009E001980021E2
:1050A00002F09AFA03E00098002102F025FB044682
:1050B0008CB126462888C043800429D4286EB0F5D8
:1050C000403F23D010DC08B3B0F5803F14D0B0F5DA
:1050D000003F0FD115E0EA6DDAF8001021F4E0414D
:1050E0001143CAF80010E5E7B0F5802F0ED0B0F5F7
:1050F000A02F0BD001240AE00198012102F06CFAE4
:1051000003E00098012102F0F7FA044694B1264624
:105110002888C04340042AD4D5F8AC00B0F1405FE1
:1051200023D010DC08B3B0F1805F14D0B0F1005F81
:105130000FD115E02A6EDAF8001021F4E0211143B6
:10514000CAF80010E4E7B0F1804F0ED0B0F1A04FE4
:105150000BD001240AE00198012102F03DFA03E09E
:105160000098012102F0C8FA044674B12646288846
:10517000C04300041FD4E86ED8B1B0F1805F0ED0F8
:10518000B0F1005F10D0012414E0D5F8AC20D8F8BD
:10519000001021F0E0411143C8F80010E7E738683B
:1051A00040F40030386004E00198012102F014FA64
:1051B000044674B126462868C043C0011ED4A86CBA
:1051C000D0B101280ED0022811D0032814D0012418
:1051D00013E0EA6EDAF8001021F040511143CAF8EA
:1051E0000010E8E7386840F40030386004E00198C7
:1051F000022102F0F1F904466CB126462868C0434A
:10520000400255D41F48016841F480710160FFF7E6
:1052100009FC81460EE0AA6CDBF8001021F00301C6
:105220001143CBF80010E9E7FFF7FCFBA0EB090006
:1052300064283BD813480068C005F5D5BCBBDFF82F
:105240004090B5F8B01009F14409D9F8000001F414
:10525000407100F44070884211D0D9F80010D9F89C
:10526000002021F4407142F48032C9F80020D9F8BE
:10527000002022F48032C9F80020C9F8001003E0B1
:105280002C44025800480258D5F8B000B0F5807F91
:1052900019D1FFF7C7FB029011E000BFFFF7C2FB77
:1052A0000299411A41F28830814208D903242646E6
:1052B0002878DFF81494C043C00721D03CE0D9F827
:1052C00000008007EAD5D5F8B010C1F3012003280B
:1052D000FE480DD0016821F47C510160B5F8B02082
:1052E000D9F80010C2F30B021143C9F80010DFE730
:1052F000F74A036802EA111223F47C511143ECE7E8
:10530000A86F182816D005DCA0B1082808D01028EE
:1053100004D10AE020280DD028280BD001240AE06F
:105320000198012102F058F903E00098012102F0F0
:10533000E3F9044664B126462878C04380071ED4AA
:10534000686F062819D2DFE800F0160C1116161641
:10535000AA6FD9F8001021F038011143C9F80010E4
:10536000EAE70198012102F037F903E000980121F2
:1053700002F0C2F904467CB100E0012426462878F8
:10538000C04340071FD4D5F89000062819D2DFE8A3
:1053900000F0160C111616166A6FD9F8001021F0DD
:1053A00007011143C9F80010E9E70198012102F053
:1053B00013F903E00098012102F09EF90446A4B11C
:1053C00000E0012426462878C04380062BD4D5F877
:1053D0008C00B0F1405F24D011DC10B3B0F1805FDD
:1053E00015D0B0F1005F10D116E0D5F89020D8F8B4
:1053F000001021F007011143C8F80010E3E7B0F1F5
:10540000804F0ED0B0F1A04F0BD001240AE00198DC
:10541000002102F0E1F803E00098022102F06CF9AB
:10542000044694B126462878C04340062BD4D5F8CC
:105430009800B0F5406F24D011DC10B3B0F5806F48
:1054400015D0B0F5006F10D116E0D5F88C20D9F842
:10545000001021F0E0411143C9F80010E3E7B0F576
:10546000805F0ED0B0F5A05F0BD001240AE0019858
:10547000002102F0B1F803E00098022102F03CF9AB
:10548000044694B126462878C04300062BD4D5F8AC
:105490009C00B0F5C04F24D011DC10B3B0F5005F14
:1054A00015D0B0F5804F10D116E0D5F89820D8F877
:1054B000001021F4E0511143C8F80010E3E7B0F503
:1054C000004F0ED0B0F5204F0BD001240AE0019818
:1054D000002102F081F803E00098022102F00CF9AB
:1054E000044654B126462878C04300071ED4D5F898
:1054F0008000B0F5805F0AD00FE0D5F89C20D8F886
:10550000001021F460411143C8F80010EBE7009847
:10551000022102F0F1F800B10126D5F88020D9F877
:10552000001021F440511143C9F800102878C043FD
:10553000C00613D4D5F89400B0F5807F05D100984B
:10554000022102F0D9F800B10126D5F89420D8F84C
:10555000001021F440711143C8F800102868C043BE
:10556000000316D4D5F8A00038B1B0F5803F09D0BB
:10557000B0F5003F0BD001240AE00198002102F0B1
:105580002BF803E00098022102F0B6F804468CB133
:1055900026462868C043400322D4D5F88400B0F5DD
:1055A000801F11D0B0F5001F13D0B0F5401F15D0EB
:1055B000012414E0D5F8A020D8F8001021F44031DF
:1055C0001143C8F80010E4E7386840F40030386050
:1055D00004E00098012102F08FF804465CB12646F1
:1055E0002868C043C0031CD4286D70B1B0F5803F5B
:1055F00010D0012414E0D5F88420D9F8001021F44B
:1056000040111143C9F80010EAE7386840F400304F
:10561000386004E00198022101F0DEFF0446DCB1AD
:1056200026462868C043800005D40098022102F075
:1056300063F800B101262868C04380031BD4E86FDB
:10564000B8B1B0F5807F10D0B0F5007F11D0B0F5C3
:10565000407F0ED001240DE02A6DDBF8001021F40C
:1056600080311143CBF80010DBE7386840F400309C
:1056700038607CB326462868C043C00207D42A6F2E
:10568000DAF8001021F000411143CAF80010286830
:10569000C043800207D4AA6EDAF8001021F08071AE
:1056A0001143CAF800102868C043400009D40748D5
:1056B000016821F4004101600168D5F8B42011436C
:1056C00001602868C04306E0544402581044025860
:1056D000CFFFFF001DE007D46A6DDBF8001021F05A
:1056E00040511143CBF800102868C043000208D491
:1056F000D5F88820D9F8001021F440011143C9F8E9
:10570000001028790024C04300F00100204309D094
:105710000EE0EA6FD9F8001021F440711143C9F886
:105720000010A8E70198002101F056FF00B10646DD
:105730002879C04300F00200204305D101980121DF
:1057400001F04AFF00B106462879C04300F004008A
:10575000204305D10198022101F03EFF00B1064629
:105760002879C04300F00800204305D100980021AB
:1057700001F0C2FF00B106462879C04300F01000D6
:10578000204305D10098012101F0B6FF00B1064683
:105790002879C04300F02000044304D1009802217E
:1057A00001F0AAFF00B916B10120BDE8FE8F00206C
:1057B000FBE700002DE9F05F04000F467ED0DFF824
:1057C0003882D8F8000000F00F00B8420CD2D8F8A8
:1057D000001021F00F013943C8F80010D8F800007C
:1057E00000F00F00B84269D12078844D40070AD5F7
:1057F0002069296801F07001884204D9296821F0E4
:1058000070010143296020787C4E361D00070AD5BF
:105810006069316801F07001884204D9316821F073
:105820007001014331602078C0060AD5A069316853
:1058300001F4E061884204D9316821F4E061014358
:1058400031602078DFF8B4B180060BF1080B0CD57D
:10585000E1695846DBF8002002F07002914204D959
:10586000026822F070020A430260207880070AD59D
:10587000E068296801F00F01884204D9296821F005
:105880000F01014329602078C0073ED05B49A26820
:105890002868183920F47060104328606068022876
:1058A00018D0032819D00968012819D04907002900
:1058B0004ADADFF848A1AAF1080A00E044E0DAF881
:1058C000002022F007020243CAF80020FFF7AAF8DE
:1058D000814612E009688903E9E709688901E6E77A
:1058E000C905E4E7FFF79EF8A0EB090141F2883013
:1058F000814202D90320BDE8F09F6168DAF8000018
:1059000000F03800B0EBC10FECD1207880070AD549
:10591000E068296801F00F01884204D2296821F06B
:105920000F0101432960D8F80010404601F00F0133
:10593000B9420BD9016821F00F01394301600068B9
:1059400000F00F00B84201D00120D4E720784007D2
:105950000AD52069296801F07001884204D22968BB
:1059600021F0700101432960207800070AD56069A1
:10597000316801F07001884204D2316821F0700171
:10598000014331602078C0060AD5A069316801F46E
:10599000E061884204D2316821F4E0610143316062
:1059A000207880060CD5E1695846DBF8002002F02B
:1059B0007002914204D2026822F070020A4302602F
:1059C00000F06CF80E492A682B68C2F3032203F03A
:1059D0000F038A5CC95C02F01F0201F01F01D04076
:1059E000084A20FA01F11160074908600748006879
:1059F000BDE8F05FFFF752B800200052184402588B
:105A000094970008140000241000002408000024CB
:105A100030B500F043F80B4A0B490C4B156814687D
:105A2000C5F3032204F00F048A5C095D02F01F0233
:105A300001F01F01D040064A20FA01F11960106000
:105A4000084630BD184402589497000814000024FA
:105A50001000002400B5FFF7DBFF05490968054A7F
:105A6000C1F30211515C01F01F01C84000BD0000EC
:105A70001C4402589497000800B5FFF7C9FF054978
:105A80000968054AC1F30221515C01F01F01C840B9
:105A900000BD00001C44025894970008454970B5A9
:105AA00045480968434B103B11F0380208D00111FA
:105AB000082A03D0102A0BD0182A0BD0084670BD34
:105AC00019688906FBD51968C1F3C101C84070BDCA
:105AD0003A4870BD3749374D18310C1D24350A68D6
